:100000000C9463000C948B000C948B000C948B006C
:100010000C948B000C948B000C948B000C940E07AA
:100020000C948B000C948B000C948B000C948B0024
:100030000C948B000C948B000C948B000C948B0014
:100040000C9408020C948B000C9478030C94C60357
:100050000C948B000C948B000C948B000C948B00F4
:100060000C948B000C948B000000000024002700EF
:100070002A0000000000250028002B0000000000DE
:1000800023002600290004040404040404040202DA
:100090000202020203030303030301020408102007
:1000A0004080010204081020010204081020000012
:1000B0000007000201000003040600000000000029
:1000C00000000200320511241FBECFEFD8E0DEBFD2
:1000D000CDBF11E0A0E0B1E0E6EBF4E102C0059095
:1000E0000D92A233B107D9F712E0A2E3B1E001C04B
:1000F0001D92A230B107E1F710E0C6ECD0E004C0D9
:100100002297FE010E941E0AC43CD107C9F70E9433
:1001100088050C94590A0C940000A0E0B0E0E3E9D3
:10012000F0E00C942A0AEC01A880B980CA80DB8038
:10013000A114B104C104D10441F484E2A82E89EDD4
:10014000B82E8BE5C82E87E0D82EC601B5012DE16B
:1001500033EF41E050E00E94010A27EA31E440E039
:1001600050E00E94C0097B018C01C601B5012DE160
:1001700033EF41E050E00E94010ACA01B9012CEEC0
:1001800034EF4FEF5FEF0E94C0096E0D7F1D801F9F
:10019000911F97FF04C06150704080409048688371
:1001A00079838A839B839B01AC015F77B901CA0184
:1001B000CDB7DEB7EAE00C94460A0E948D000895A0
:1001C0008AE191E00E948D00089560931A01709376
:1001D0001B0180931C0190931D01089589E060E04C
:1001E0000E9423038AE060E00E9423038BE060E02A
:1001F0000E942303109233011092320110923501B4
:100200001092340110923701109236011092390188
:100210001092380108951F93182F89E060E00E9422
:1002200023038AE060E00E9423038BE060E00E94E9
:100230002303812F61E00E9423031F910895CF9231
:10024000DF92EF92FF920F931F93CF93DF936C0196
:10025000C0E0D0E07B010027F7FC0095102F0EC016
:100260008CE060EA7FE020E931E040E050E00E946D
:100270006A07C801B7010E9450022196CC15DD051E
:100280007CF3DF91CF911F910F91FF90EF90DF9062
:10029000CF9008958091340190913501909337016A
:1002A0008093360161E070E080E090E020E335E784
:1002B00040E050E00E94A20920E137E240E050E037
:1002C0000E94010AB90130933501209334018091D5
:1002D0003601909137018217930751F480913801CC
:1002E000909139010196909339018093380104C0AF
:1002F00010923901109238018BEC91E04AE050E005
:100300000E94A1068BEC91E060E071E00E94C006C3
:1003100060913801709139018BEC91E04AE050E036
:100320000E94A106809138019091390102979CF5B5
:100330008BEC91E06BE071E00E94C30681E090E0FD
:1003400060E070E00E941F018091340190913501BE
:10035000009719F489E090E007C0019719F48AE04A
:1003600090E002C08BE090E00E940B016CED75E024
:1003700080E090E024EC39E040E050E00E94A209E7
:100380000E94500280913201909133010196909326
:10039000330180933201089520913201309133016D
:1003A00080911E0190911F01281739071CF40E94AB
:1003B0004A0108950E94EE0083E090E064EF71E04E
:1003C0000E941F0160EE7EE280E090E00E945002F9
:1003D00008958BEC91E040E855E260E070E00E9407
:1003E000010489E061E00E94E4028AE061E00E9489
:1003F000E4028BE061E00E94E4028CE061E00E9494
:10040000E40260EE7EE280E090E00E9450020895F7
:100410001F920F920FB60F9211242F933F938F9339
:100420009F93AF93BF9380913E0190913F01A09124
:100430004001B0914101309142010196A11DB11DD1
:10044000232F2D5F2D3720F02D570196A11DB11DB3
:100450002093420180933E0190933F01A09340017D
:10046000B093410180913A0190913B01A0913C01F0
:10047000B0913D010196A11DB11D80933A01909369
:100480003B01A0933C01B0933D01BF91AF919F917F
:100490008F913F912F910F900FBE0F901F90189545
:1004A0009B01AC017FB7F89480913A0190913B0198
:1004B000A0913C01B0913D0166B5A89B05C06F3F7E
:1004C00019F00196A11DB11D7FBFBA2FA92F982F3A
:1004D0008827860F911DA11DB11D62E0880F991F0D
:1004E000AA1FBB1F6A95D1F7BC012DC0FFB7F894B6
:1004F00080913A0190913B01A0913C01B0913D0166
:10050000E6B5A89B05C0EF3F19F00196A11DB11DEE
:10051000FFBFBA2FA92F982F88278E0F911DA11DDD
:10052000B11DE2E0880F991FAA1FBB1FEA95D1F702
:10053000861B970B885E9340C8F2215030404040A4
:10054000504068517C4F211531054105510571F628
:100550000895789484B5826084BD84B5816084BD3B
:1005600085B5826085BD85B5816085BDEEE6F0E02C
:10057000808181608083E1E8F0E010828081826088
:100580008083808181608083E0E8F0E08081816009
:100590008083E1EBF0E0808184608083E0EBF0E039
:1005A000808181608083EAE7F0E0808184608083DD
:1005B0008081826080838081816080838081806887
:1005C00080831092C1000895CF93DF93482F50E0AD
:1005D000CA0186569F4FFC0134914A575F4FFA017A
:1005E0008491882369F190E0880F991FFC01E859F4
:1005F000FF4FA591B491FC01EE58FF4FC591D491E6
:10060000662351F42FB7F8948C91932F90958923FA
:100610008C93888189230BC0623061F42FB7F894E2
:100620008C91932F909589238C938881832B888339
:100630002FBF06C09FB7F8948C91832B8C939FBFDC
:10064000DF91CF910895482F50E0CA0182559F4F06
:10065000FC012491CA0186569F4FFC0194914A5790
:100660005F4FFA013491332309F440C0222351F142
:10067000233071F0243028F42130A1F0223011F51C
:1006800014C02630B1F02730C1F02430D9F404C0B2
:10069000809180008F7703C0809180008F7D809350
:1006A000800010C084B58F7702C084B58F7D84BD73
:1006B00009C08091B0008F7703C08091B0008F7D1A
:1006C0008093B000E32FF0E0EE0FFF1FEE58FF4FD6
:1006D000A591B4912FB7F894662321F48C9190954D
:1006E000892302C08C91892B8C932FBF0895089584
:1006F0001F920F920FB60F9211242F933F934F9397
:100700008F939F93EF93FF938091C00082FD1DC054
:100710004091C60020918301309184012F5F3F4FAB
:100720002F733070809185019091860128173907C9
:1007300071F0E0918301F0918401ED5BFE4F408305
:10074000309384012093830102C08091C600FF9101
:10075000EF919F918F914F913F912F910F900FBEED
:100760000F901F901895E091D701F091D801E05CAF
:10077000FF4F8191919120813181821B930B8F7367
:100780009070892B11F00E94770308951F920F92A9
:100790000FB60F9211242F933F938F939F93EF9354
:1007A000FF932091C7013091C8018091C9019091B8
:1007B000CA012817390731F48091C1008F7D8093D9
:1007C000C10014C0E091C901F091CA01E957FE4F80
:1007D00020818091C9019091CA0101968F73907018
:1007E0009093CA018093C9012093C600FF91EF91B5
:1007F0009F918F913F912F910F900FBE0F901F905F
:100800001895AF92BF92DF92EF92FF920F931F93D2
:10081000CF93DF93EC017A018B01DD24403081EE30
:10082000580780E0680780E0780711F0DD24D39452
:1008300091E0A92EB12CEC89FD89DD2069F0C5017C
:1008400008A002C0880F991F0A94E2F7808360E035
:1008500079E08DE390E005C0108260E874E88EE1F5
:1008600090E0A80197010E94DF09215030404040EC
:100870005040569547953795279580E120303807A9
:1008800020F0DD2011F0DD24D6CFE889F98930830E
:10089000EA89FB89208319A2EE89FF89408121E042
:1008A00030E0C9010C8C02C0880F991F0A94E2F74E
:1008B000482B4083EE89FF894081C9010D8C02C01D
:1008C000880F991F0A94E2F7482B4083EE89FF892D
:1008D0004081C9010E8C02C0880F991F0A94E2F76B
:1008E000482B4083EE89FF8980810F8C02C0220F44
:1008F000331F0A94E2F7209528232083DF91CF91BC
:100900001F910F91FF90EF90DF90BF90AF900895EF
:10091000DC011C96ED91FC911D97E05CFF4F21914D
:10092000319180819181281B390B2F733070C9015F
:100930000895DC011C96ED91FC911D97E05CFF4F42
:1009400020813181E054F040DF01AE5BBF4F8D91DB
:100950009C9111972817390719F42FEF3FEF07C023
:100960008D919C91E80FF91F8081282F30E0C901FB
:100970000895DC011C96ED91FC911D97E05CFF4F02
:1009800020813181E054F040DF01AE5BBF4F8D919B
:100990009C9111972817390719F42FEF3FEF10C0DA
:1009A0008D919C911197E80FF91F20818D919C9159
:1009B000119701968F73907011969C938E9330E0EF
:1009C000C9010895DC0191968C919197882339F0A3
:1009D0005496ED91FC915597808186FFF9CF9196C1
:1009E0001C920895CF93DF93EC01EE85FF85E05CC8
:1009F000FF4F20813181E054F0402F5F3F4F2F7334
:100A00003070DF01AE5BBF4F8D919C91119728171D
:100A10003907D1F3E05CFF4F80819181E054F040D1
:100A2000E80FF91F6083EE85FF85E05CFF4F31839F
:100A30002083EE89FF89208181E090E00F8C02C045
:100A4000880F991F0A94E2F7282B208381E089A35D
:100A5000EC89FD8980818064808381E090E0DF9172
:100A6000CF9108951092CE011092CD0188EE93E0BF
:100A7000A0E0B0E08093CF019093D001A093D1018A
:100A8000B093D20185E291E09093CC018093CB01A9
:100A900083E491E09093D8018093D70187E891E0B7
:100AA0009093DA018093D90185EC90E09093DC017A
:100AB0008093DB0184EC90E09093DE018093DD0174
:100AC00080EC90E09093E0018093DF0181EC90E076
:100AD0009093E2018093E10182EC90E09093E40135
:100AE0008093E30186EC90E09093E6018093E5012A
:100AF00084E08093E70183E08093E80187E08093BE
:100B0000E90185E08093EA0181E08093EB0108959B
:100B1000CF93DF930E94A9020E94E901C3EBD3E0C7
:100B20000E94CC012097E1F30E94B303F9CFCF924A
:100B3000DF92EF92FF920F931F93CF93DF937C018D
:100B40006B018A01C0E0D0E00FC0D6016D916D014C
:100B5000D701ED91FC910190F081E02DC70109953D
:100B6000C80FD91F015010400115110571F7CE01B2
:100B7000DF91CF911F910F91FF90EF90DF90CF9079
:100B80000895EF92FF920F931F938C01DC01ED917A
:100B9000FC910190F081E02D6DE009957C01D80178
:100BA000ED91FC910190F081E02DC8016AE009957A
:100BB0009C012E0D3F1DC9011F910F91FF90EF90D9
:100BC0000895CF93DF93EC016115710519F420E0CE
:100BD00030E00FC0DB010D900020E9F71197A61B54
:100BE000B70BE881F9810280F381E02DAD01099511
:100BF0009C01C901DF91CF9108954F925F927F923E
:100C00008F929F92AF92BF92CF92DF92EF92FF921C
:100C10000F931F93DF93CF93CDB7DEB7A1970FB696
:100C2000F894DEBF0FBECDBF2C01742ECB01223055
:100C300008F42AE019A231E2C32ED12CCC0EDD1E1D
:100C4000822E9924AA24BB24672D752FA501940117
:100C50000E94DF0979018A01C801B701A501940149
:100C60000E94C009472D461B0894C108D1084A308C
:100C700014F4405D01C0495CF6014083E114F104C5
:100C80000105110521F07E2C5F2DC801DDCFC201C9
:100C9000B6010E94E105A1960FB6F894DEBF0FBE23
:100CA000CDBFCF91DF911F910F91FF90EF90DF901B
:100CB000CF90BF90AF909F908F907F905F904F901C
:100CC0000895CF92DF92EF92FF920F931F93CF93ED
:100CD000DF93EC016A017B012115310541F4E881C4
:100CE000F9810190F081E02D642F09951FC02A3011
:100CF0003105D1F477FF17C0E881F9810190F081C7
:100D0000E02D6DE209958C0144275527BA014C1955
:100D10005D096E097F09CE012AE00E94FD05980158
:100D2000280F391F04C02AE00E94FD059C01C9015B
:100D3000DF91CF911F910F91FF90EF90DF90CF90B7
:100D40000895CF92DF92EF92FF920F931F936C0161
:100D50007B019A010027F7FC0095102FB801A7012D
:100D60000E9461068C01C6010E94C105080F191F6F
:100D7000C8011F910F91FF90EF90DF90CF900895E1
:100D80000E94E1050895EF92FF920F931F937C015B
:100D90000E94E1058C01C7010E94C105080F191FBF
:100DA000C8011F910F91FF90EF900895813041F09D
:100DB000813018F08230D1F409C010926E0008958D
:100DC00080916F008D7F80936F00089580917000F7
:100DD0008D7F8093700081E08093B0008091B1009E
:100DE000887F84608093B1001092B30008951F93B0
:100DF000182F80912001811711F09FEF06C0E2ECBF
:100E0000F0E094918FEF80932001892F0E94D60605
:100E1000812F60E00E9423031F9108951F920F927B
:100E20000FB60F9211242F933F934F935F936F93BD
:100E30007F938F939F93AF93BF93EF93FF93809193
:100E4000FB019091FC01A091FD01B091FE01009782
:100E5000A105B10551F1E091FF01F09100028081FF
:100E600090910102892780838091FB019091FC0180
:100E7000A091FD01B091FE01181619061A061B0675
:100E8000C4F48091FB019091FC01A091FD01B0910F
:100E9000FE010197A109B1098093FB019093FC0128
:100EA000A093FD01B093FE0104C0809120010E9437
:100EB000F706FF91EF91BF91AF919F918F917F9135
:100EC0006F915F914F913F912F910F900FBE0F90B7
:100ED0001F9018952F923F925F926F927F928F9200
:100EE0009F92AF92BF92CF92DF92EF92FF920F93B9
:100EF0001F93DF93CF9300D000D0CDB7DEB7A82FDC
:100F00001B0129833A834B835C83809120018A17DC
:100F100021F4E2ECF0E0549082C08F3F09F0DAC196
:100F2000A0932001E2ECF0E054902FEF521609F468
:100F3000D1C181E0581639F192E0591609F449C03F
:100F4000552009F06CC014BC15BC84B5826084BD0A
:100F500085B5816085BD2A2F30E0F901EA57FF4F42
:100F6000E491F0E0EE0FFF1FEE58FF4F8591949152
:100F70009093F2018093F10126563F4FF90184913D
:100F80008093F3014EC010928000109281008091F6
:100F900081008860809381008091810081608093CE
:100FA00081002A2F30E0F901EA57FF4FE491F0E089
:100FB000EE0FFF1FEE58FF4F859194919093F9012A
:100FC0008093F80126563F4FF90184918093FA01EE
:100FD00028C01092B0001092B1008091B0008260E1
:100FE0008093B0008091B10081608093B1002A2F7E
:100FF00030E0F901EA57FF4FE491F0E0EE0FFF1FF8
:10100000EE58FF4F85919491909300028093FF01D9
:1010100026563F4FF90184918093010202C057FC8C
:1010200059C18A2F61E00E94E402552021F0F2E0CC
:101030005F1609F0BEC031018824992460E072E196
:101040008AE790E0A40193010E94010A59016A0114
:10105000860175010894E108F108010911092FEFD3
:10106000E216F1040105110509F008F499C060E4E5
:1010700072E48FE090E0A40193010E94010A7901DB
:101080008A010894E108F1080109110982E0581663
:10109000C1F49FEFE916F1040105110509F008F408
:1010A00084C060E970ED83E090E0A40193010E94A8
:1010B000010A79018A010894E108F108010911097E
:1010C00083E0AFEFEA16F1040105110509F008F419
:1010D00068C068E478EE81E090E0A40193010E948A
:1010E000010A79018A010894E108F108010911094E
:1010F000552011F483E01DC0B2E05B1611F084E0CE
:1011000018C0EFEFEE16F1040105110509F008F41F
:10111000DFC064E274EF80E090E0A40193010E94DC
:10112000010A79018A010894E108F108010911090D
:1011300085E0FFEFEF16F1040105110591F188F14B
:1011400062E17AE780E090E0A40193010E94010A45
:1011500079018A010894E108F10801091109552073
:1011600011F086E001C084E02FEFE216F1040105E2
:101170001105B9F0B0F0C601B50120E034E040E05F
:1011800050E00E94010A79018A010894E108F108FF
:1011900001091109552011F087E008C085E003C05E
:1011A00081E0552019F485BD3AC082E08093B100FA
:1011B00036C05101CC24DD2460E072E18AE790E082
:1011C000A60195010E94010A79018A010894E108AB
:1011D000F1080109110980E0E81680E0F80681E0D5
:1011E000080780E0180710F491E010C068E478EE7A
:1011F00081E090E0A60195010E94010A79018A012F
:101200000894E108F1080109110993E0A1E05A16D8
:1012100031F480918100887F982B9093810089819F
:101220009A81AB81BC810097A105B10529F48FEFAC
:101230009FEFAFEFBFEF13C0220C331CB10180E072
:1012400090E029813A814B815C810E94C00928EE9F
:1012500033E040E050E00E94DF09C901DA01E1E03B
:101260005E16A1F0F2E05F1619F1552099F5E7BC82
:101270008093ED019093EE01A093EF01B093F00104
:1012800080916E00826080936E0024C0F09289008D
:10129000E09288008093F4019093F501A093F60109
:1012A000B093F70180916F00826080936F0012C04D
:1012B000E092B3008093FB019093FC01A093FD01A9
:1012C000B093FE018091700082608093700002C034
:1012D00084E06CCF0F900F900F900F90CF91DF9123
:1012E0001F910F91FF90EF90DF90CF90BF90AF9044
:1012F0009F908F907F906F905F903F902F90089578
:10130000EF92FF920F931F937B018C016115710582
:101310008105910529F420E030E040E050E00BC069
:101320000E94E000A80197010E94010AAC01CB01D4
:10133000DA019C01AD01B901CA011F910F91FF9023
:10134000EF900895EF92FF920F931F937B018C0112
:10135000621773078407950764F4261B370B480B45
:10136000590BCA01B9010E948009E60EF71E081F39
:10137000191FB701C8011F910F91FF90EF900895B9
:10138000629FD001739FF001829FE00DF11D649F69
:10139000E00DF11D929FF00D839FF00D749FF00DF5
:1013A000659FF00D9927729FB00DE11DF91F639F96
:1013B000B00DE11DF91FBD01CF0111240895A1E277
:1013C0001A2EAA1BBB1BFD010DC0AA1FBB1FEE1FBF
:1013D000FF1FA217B307E407F50720F0A21BB30B0A
:1013E000E40BF50B661F771F881F991F1A9469F786
:1013F00060957095809590959B01AC01BD01CF01E2
:10140000089597FB092E05260ED057FD04D0D7DF8F
:101410000AD0001C38F450954095309521953F4FE7
:101420004F4F5F4F0895F6F79095809570956195B1
:101430007F4F8F4F9F4F0895EE0FFF1F0590F49140
:10144000E02D09942F923F924F925F926F927F927C
:101450008F929F92AF92BF92CF92DF92EF92FF92C4
:101460000F931F93CF93DF93CDB7DEB7CA1BDB0B70
:101470000FB6F894DEBF0FBECDBF09942A88398815
:1014800048885F846E847D848C849B84AA84B9841C
:10149000C884DF80EE80FD800C811B81AA81B98128
:1014A000CE0FD11D0FB6F894DEBF0FBECDBFED013C
:0614B0000895F894FFCF3F
:1014B60023206475706573202D2000546172676562
:1014C60074205570646174656400010000000C00AE
:1014D600FF00000000F20497058804B9049904E2AD
:0214E600040000
:00000001FF
